:100000000C9428010C9459010C9459010C94590139
:100010000C9459010C9459010C9459010C945901F8
:100020000C9459010C9459010C9459010C945901E8
:100030000C9459010C9459010C9459010C945901D8
:100040000C9459010C9459010C9459010C945901C8
:100050000C9459010C9459010C9459010C94980674
:100060000C9459010C9465060C948D050C9459015F
:100070000C9459010C9459010C9459010C94590198
:100080000C9459010C9459010C9459010C94590188
:100090000C9432060C944E050C9459010C945901A1
:1000A0000C9459010C9459010C9459010C94590168
:1000B0000C9459010C9459010C9459010C94590158
:1000C0000C9459010C9459010C9459010C94FF059E
:1000D0000C940F050C9459010C94CC050C94D0048D
:1000E0000C9459016004630456045A049A0467048A
:1000F0006B047104750479047F04830487049A04F3
:100100008D04910495040C9419020C9487040C94AA
:10011000E2060C94EE010C9471040C9467040C94A8
:1001200083040C94A2010C945F020C94F9010C94CA
:1001300035020C9456040C9491040C948D040C9488
:1001400075040C945A040C947F040C949A040C9437
:1001500079040C9495040C9463040C946B040C9433
:100160006004000020002300260029002C002F003E
:100170003200000100000301060109010505050523
:10018000070508080808020202020A0A080804040F
:10019000040401010101010101010303030303033D
:1001A0000303040707070C0C0C0C0C0C0C0C0202CC
:1001B000020206060606060606060B0B0B0B0B0BC9
:1001C0000B0B010210202008081020401020408056
:1001D000020102010804020101020408102040800B
:1001E0008040201008040201800402018040201099
:1001F00008040201080402010102040810204080E2
:1002000001020408102040800000090A02080B0CBB
:100210000D070603040100000000000000000000BC
:1002200000000000000000000000000000000000CE
:100230000000000011100F0000000000000000008E
:100240000000000000000000000000000000E206C6
:1002500011241FBECFEFD1E2DEBFCDBF00E00CBF47
:1002600012E0A0E0B2E0E8EEF2E100E00BBF02C075
:1002700007900D92A23CB107D9F725E0A2ECB2E0BD
:1002800001C01D92A337B207E1F711E0C8E2D1E047
:1002900000E006C021970109802FFE010E946A0933
:1002A000C732D10780E00807A9F70E94B4070C9471
:1002B00045090C940000FC01A489B58981E090E017
:1002C0009C0100A002C0220F331F0A94E2F72C9376
:1002D000A089B1891C92A289B3892FEC2C9311A219
:1002E000A689B7894C919C01048C02C0220F331F50
:1002F0000A94E2F7242B2C93A689B7894C919C0190
:10030000058C02C0220F331F0A94E2F7242B2C9392
:10031000A689B7894C919C01068C02C0220F331F1D
:100320000A94E2F7242B2C93A689B7892C91078C89
:1003300002C0880F991F0A94E2F7809582238C935C
:10034000089508950F931F93CF93DF93FC01A68523
:10035000B7858D01005C1F4FE80188819981019666
:100360008F739927AD014E5B5F4FEA012881398178
:1003700028173907D1F3E80128813981A20FB31F6B
:100380006C93A685B785A05CBF4F11969C938E9306
:10039000A689B7892C9181E090E0078C02C0880F74
:1003A000991F0A94E2F7822B8C9381E081A3048841
:1003B000F589E02D80818064808381E090E0DF9189
:1003C000CF911F910F910895682F81E595E00C94CE
:1003D000A201682F8FE295E00C94A201FC0181A19B
:1003E000882329F0A489B5898C9186FFFBCF11A2BF
:1003F0000895FC01A485B585FD01E05CFF4F2081D7
:1004000031813296808191812817390779F0808176
:100410009181A80FB91F8C91208131812F5F3F4FAF
:100420002F7333273183208390E008958FEF9FEF60
:100430000895DC011C96ED91FC911D97DF01A05CF5
:10044000BF4F2D913C91119712968D919C911197D0
:100450002817390739F08D919C91E80FF91F808199
:1004600090E008958FEF9FEF0895FC012485358576
:10047000F901E05CFF4F80819181329620813181CA
:10048000821B930B8F7399270895FB01E05CFF4F4C
:1004900020813181DB01AE5BBF4F4D915C912F5FBD
:1004A0003F4F2F7333274217530741F0408151814B
:1004B000DB01A40FB51F8C93318320830895CF9265
:1004C000DF92EF92FF920F931F93CF93DF936C0114
:1004D000EB017B01E40EF51E00E010E0CE15DF0518
:1004E00061F06991D601ED91FC910190F081E02DD0
:1004F000C6011995080F191FF1CFC801DF91CF91DF
:100500001F910F91FF90EF90DF90CF9008953FB72C
:10051000F8948091C3029091C402A091C502B09159
:10052000C60226B5A89B05C02F3F19F00196A11D54
:10053000B11D3FBFBA2FA92F982F8827820F911D79
:10054000A11DB11DBC01CD0142E0660F771F881FC0
:10055000991F4A95D1F70895CF92DF92EF92FF92BB
:100560000F931F93CF93DF939FB7F894C0902B0501
:10057000D0902C05E0902D05F0902E059FBF98EEB1
:10058000C90E93E0D91EE11CF11CC82FD0E081E513
:1005900095E00E9435028C179D07DCF42FB7F89484
:1005A00080912B0590912C05A0912D05B0912E05E1
:1005B0002FBF8C159D05AE05BF0558F40E9487021C
:1005C0008B010E948702601B710B683E7340F8F636
:1005D000F8CF81E595E00E94350221E08C179D0758
:1005E0000CF420E0822FDF91CF911F910F91FF90AB
:1005F000EF90DF90CF900895CF92DF92EF92FF922D
:1006000081E595E00E94F9017C0181E595E00E9479
:10061000F9016C0181E595E00E94F901A601DD0C6C
:10062000660B770B762F652F542F4427092E000C6D
:10063000AA0BBB0BDC0199278827842B952BA62BB3
:10064000B72B6701FF0CEE08FF08C82AD92AEA2A4F
:10065000FB2A81E595E00E94F901092E000CAA0B06
:10066000BB0BB82FAA2799278827BC01CD016C297D
:100670007D298E299F29FF90EF90DF90CF900895DC
:100680001F93CF93DF93172FD82FC92F862F660F75
:10069000990B0E94E401812F110F990B0E94E40134
:1006A0008D2FDD0F990B0E94E4018C2FCC0F990B3D
:1006B000DF91CF911F910C94E4014F925F926F9262
:1006C0007F928F929F92AF92BF92EF92FF920F9381
:1006D0001F93CF93DF93CDB7DEB72C970FB6F89467
:1006E000DEBF0FBECDBF2B013C0129873A874B8768
:1006F0005C8761E070E080E090E0A80197010E94D3
:1007000048096D837E838F839887C301B201A80156
:1007100097010E9448094B015C0129853A854B8568
:100720005C85211531054105510509F48AC020FF7A
:1007300042C06D817E818F819885A80197010E94BA
:10074000480969837A838B839C83240135011D8248
:100750001E821F821886411451046104710459F1EC
:1007600040FE14C06D817E818F81988529813A81F8
:100770004B815C81620F731F841F951FA801970135
:100780000E9448096D837E838F83988769817A816F
:100790008B819C81660F771F881F991FA801970185
:1007A0000E94480969837A838B839C83769467943B
:1007B00057944794D0CFC501B401A80197010E9476
:1007C000480969837A838B839C83412C512C3201A5
:1007D00081149104A104B10429F180FE0EC0698145
:1007E0007A818B819C81640D751D861D971DA801E2
:1007F00097010E9448092B013C0169817A818B8114
:100800009C81660F771F881F991FA80197010E947E
:10081000480969837A838B839C83B694A7949794C1
:100820008794D6CF89859A85AB85BC85B695A795E3
:100830009795879589879A87AB87BC875301420133
:100840006CCF6D817E818F8198852C960FB6F89440
:10085000DEBF0FBECDBFDF91CF911F910F91FF90F3
:10086000EF90BF90AF909F908F907F906F905F9030
:100870004F900895E5E1F2E04491EFECF1E024912E
:10088000E9E8F1E09491992309F461C0442309F463
:1008900051C050E0FA013197E131F10508F04AC04A
:1008A0008827EE58FF4F8F4F0C946A098091800083
:1008B0008F7703C0809180008F7D809380003AC045
:1008C00084B58F7702C084B58F7D84BD33C080919D
:1008D000B0008F7703C08091B0008F7D8093B0000F
:1008E00029C0809190008F7707C0809190008F7D04
:1008F00003C080919000877F809390001BC08091FF
:10090000A0008F7707C08091A0008F7D03C08091E9
:10091000A000877F8093A0000DC0809120018F7779
:1009200007C0809120018F7D03C080912001877FC7
:1009300080932001E92FF0E0EE0FFF1FEE59FE4FEC
:10094000A591B491EC91E22311F081E0089580E04B
:1009500008950F931F93CF93DF93009779F0FC01D5
:1009600001900020E9F73197AF01481B590BBC01FA
:100970008FE295E00E945F02EC0102C0C0E0D0E08F
:100980008DE00E94E9018C018AE00E94E901C00F1C
:10099000D11F8C0F9D1FDF91CF911F910F91089553
:1009A0001F920F920FB60F9211240BB60F922F9336
:1009B0003F938F939F93EF93FF9320910703309181
:1009C00008038091090390910A032817390731F42D
:1009D000809131018F7D8093310114C0E091090332
:1009E000F0910A03E953FD4F208180910903909112
:1009F0000A0301968F73992790930A038093090342
:100A000020933601FF91EF919F918F913F912F910C
:100A10000F900BBE0F900FBE0F901F9018951F9256
:100A20000F920FB60F9211240BB60F922F933F9394
:100A30008F939F93EF93FF9320918F0330919003B7
:100A400080919103909192032817390731F4809196
:100A5000D1008F7D8093D10014C0E0919103F0917B
:100A60009203E15BFC4F208180919103909192036E
:100A700001968F739927909392038093910320930B
:100A8000D600FF91EF919F918F913F912F910F9001
:100A90000BBE0F900FBE0F901F9018951F920F92D4
:100AA0000FB60F9211240BB60F922F933F938F9393
:100AB0009F93EF93FF932091390430913A048091F2
:100AC0003B0490913C042817390731F48091C90008
:100AD0008F7D8093C90014C0E0913B04F0913C04E9
:100AE000E750FC4F208180913B0490913C0401969B
:100AF0008F73992790933C0480933B042093CE00FE
:100B0000FF91EF919F918F913F912F910F900BBE8D
:100B10000F900FBE0F901F9018951F920F920FB657
:100B20000F9211240BB60F922F933F938F939F93A5
:100B3000EF93FF932091E3043091E4048091E50466
:100B40009091E6042817390731F48091C1008F7D18
:100B50008093C10014C0E091E504F091E604ED55E6
:100B6000FB4F20818091E5049091E60401968F73FC
:100B700099279093E6048093E5042093C600FF91A3
:100B8000EF919F918F913F912F910F900BBE0F90FE
:100B90000FBE0F901F9018951F920F920FB60F92D5
:100BA00011240BB60F922F933F934F935F936F9344
:100BB0007F938F939F93AF93BF93EF93FF93809116
:100BC000300182FD07C0809136016BE073E00E9426
:100BD000450202C080913601FF91EF91BF91AF9124
:100BE0009F918F917F916F915F914F913F912F9145
:100BF0000F900BBE0F900FBE0F901F9018951F9275
:100C00000F920FB60F9211240BB60F922F933F93B2
:100C10004F935F936F937F938F939F93AF93BF9304
:100C2000EF93FF938091D00082FD07C08091D600A2
:100C300063E973E00E94450202C08091D600FF91F3
:100C4000EF91BF91AF919F918F917F916F915F9144
:100C50004F913F912F910F900BBE0F900FBE0F90B1
:100C60001F9018951F920F920FB60F9211240BB67A
:100C70000F922F933F934F935F936F937F938F9335
:100C80009F93AF93BF93EF93FF938091C80082FD32
:100C900007C08091CE006DE374E00E94450202C05F
:100CA0008091CE00FF91EF91BF91AF919F918F9175
:100CB0007F916F915F914F913F912F910F900BBE5C
:100CC0000F900FBE0F901F9018951F920F920FB6A6
:100CD0000F9211240BB60F922F933F934F935F9374
:100CE0006F937F938F939F93AF93BF93EF93FF93F4
:100CF0008091C00082FD07C08091C60067EE74E05D
:100D00000E94450202C08091C600FF91EF91BF9101
:100D1000AF919F918F917F916F915F914F913F9193
:100D20002F910F900BBE0F900FBE0F901F90189534
:100D30001F920F920FB60F9211242F933F938F9310
:100D40009F93AF93BF9380912B0590912C05A09119
:100D50002D05B0912E053091C20223E0230F2D37CF
:100D600020F40196A11DB11D05C026E8230F0296AF
:100D7000A11DB11D2093C20280932B0590932C05D9
:100D8000A0932D05B0932E058091C3029091C402CB
:100D9000A091C502B091C6020196A11DB11D80931C
:100DA000C3029093C402A093C502B093C602BF9140
:100DB000AF919F918F913F912F910F900FBE0F9008
:100DC0001F901895CF92DF92EF92FF92EFE2F5E03D
:100DD0001382128288EEC82E83E0D82EE12CF12CEB
:100DE000C482D582E682F78264E072E07183608318
:100DF00087EE94E09587848783EA94E097878687D7
:100E000085EC90E0918B808B84EC90E0938B828BCF
:100E100080EC90E0958B848B81EC90E0978B868BB7
:100E200082EC90E0918F808F86EC90E0938F828FA0
:100E300044E0448F33E0358F27E0268F95E0978F8D
:100E400081E080A3E1E8F4E013821282C482D582BB
:100E5000E682F78271836083ADE3B4E0B587A4874F
:100E6000A9EFB3E0B787A687ADECB0E0B18BA08B5C
:100E7000ACECB0E0B38BA28BA8ECB0E0B58BA48B4C
:100E8000A9ECB0E0B78BA68BAAECB0E0B18FA08F35
:100E9000AEECB0E0B38FA28F448F358F268F978F43
:100EA00080A3E7EDF3E013821282C482D582E6824A
:100EB000F78271836083A3E9B3E0B587A487AFE4C9
:100EC000B3E0B787A687A5EDB0E0B18BA08BA4ED0A
:100ED000B0E0B38BA28BA0EDB0E0B58BA48BA1EDFD
:100EE000B0E0B78BA68BA2EDB0E0B18FA08FA6EDDE
:100EF000B0E0B38FA28F448F358F268F978F80A35A
:100F0000E1E5F5E013821282C482D582E682F7829F
:100F1000718360836BE073E07587648767EC72E0D0
:100F20007787668765E371E0718B608B64E371E0BE
:100F3000738B628B60E371E0758B648B61E371E0AE
:100F4000778B668B62E371E0718F608F66E371E08F
:100F5000738F628F448F358F268F978F80A3FF907A
:100F6000EF90DF90CF900895789484B5826084BD2F
:100F700084B5816084BD85B5826085BD85B581609D
:100F800085BD80916E00816080936E00109281001B
:100F900080918100826080938100809181008160D6
:100FA0008093810080918000816080938000809197
:100FB000B10084608093B1008091B0008160809323
:100FC000B0008091910082608093910080919100A7
:100FD0008160809391008091900081608093900067
:100FE0008091A10082608093A1008091A100816026
:100FF0008093A1008091A00081608093A0008091E7
:101000002101826080932101809121018160809380
:1010100021018091200181608093200180917A00DC
:10102000846080937A0080917A00826080937A0055
:1010300080917A00816080937A0080917A00806844
:1010400080937A001092C1008FE295E00E945B01CC
:1010500081E595E00E945B0180E192E00E94A90495
:101060000E943A04882319F089E292E002C080E3EA
:1010700092E00E94A9040E943A04882309F452C015
:1010800087E392E00E94A90481E00E94AC028823D9
:10109000B9F381E595E00E94F901833489F781EB8A
:1010A00092E00E94A90488E00E94AC02882309F41F
:1010B000E9C00E94FC02162F072FF82EE92E0E948D
:1010C000FC02562E472E382E292E81E492E00E94F3
:1010D000A9048FE492E00E94A90481E490E00E94B8
:1010E000E40160E070E0CB010E94400360E070E04A
:1010F000CB010E9440038CE592E00E94A90481E0AC
:101100000E94AC02882309F4BDC081E595E00E94ED
:10111000F901813409F0B1C08CE692E00E94A90483
:10112000C1E0D0E00E943A04811141C08AE892E017
:101130000E94A90480E090E0892BD9F58CE592E02B
:101140000E94A90483E490E00E94E40160E070E062
:10115000CB010E94400360E070E0CB010E9440039D
:1011600081E00E94AC02882349F381E595E00E946A
:10117000F901813419F788E00E94AC028823F1F26A
:101180008AE992E00E94A9040E94FC02162F072F10
:10119000F82EE92E0E94FC02562E472E382E292EBC
:1011A00081E490E00E94E40181E090E0C5CF2197C6
:1011B00021F4420131016801570181E595E00E9467
:1011C0003502892B61F081E595E00E94F901F5CFA8
:1011D0008FE295E00E94350218161906A4F081E509
:1011E00095E00E94350204979CF30E94FC02E12CDA
:1011F000F12C870120E030E0A9010E945D03862FD9
:101200000E94E901E5CF8FE295E00E94F901C82F25
:101210008D30F9F48DE00E94E901E92CF82C072DBE
:10122000162D2D2D3C2D4B2D5A2D6DE070E080E0BC
:1012300090E00E945D030E9440038AE00E94E90161
:101240002D2D3C2D4B2D5A2D6AE070E080E090E072
:101250000FC00E94E9016C2FCC0F770B880B990B04
:10126000E92CF82C072D162D2D2D3C2D4B2D5A2D0C
:101270000E945D030E944003B2CF833419F4C3E09F
:10128000D0E050CFC2E0D0E04DCFF8940C9472097A
:10129000A1E21A2EAA1BBB1BFD010DC0AA1FBB1F7A
:1012A000EE1FFF1FA217B307E407F50720F0A21BEC
:1012B000B30BE40BF50B661F771F881F991F1A9459
:1012C00069F760957095809590959B01AC01BD0183
:1012D000CF010895EE0FFF1F881F8BBF0790F69177
:0812E000E02D1994F894FFCFF2
:1012E80000000000A2015F023502F9011902EE01B7
:1012F80057656C636F6D6520746F20417264756902
:101308006E6F2043686174210053657276657200C0
:10131800436C69656E74004C697374656E696E67B9
:10132800005265636569766564206B65797300535F
:10133800656E64696E67206B6579730057616974BF
:10134800696E6720666F722041636B005265636542
:10135800697665642D20446174612045786368610D
:101368006E6765205265616479004920616D20745B
:10137800686520636C69656E74005265636569769B
:1013880065642D2072656164696E67206B65797389
:101398000057616974696E6720666F72204B6579C2
:0213A800000043
:00000001FF
