:100000000C94E1000C9412010C9412010C94120156
:100010000C9412010C9412010C9412010C94120114
:100020000C9412010C9412010C9412010C94120104
:100030000C9412010C9412010C9412010C941201F4
:100040000C9412010C9412010C9412010C941201E4
:100050000C9412010C9412010C9412010C940506DC
:100060000C9412010C94D2050C94FA040C94120115
:100070000C9412010C9412010C9412010C941201B4
:100080000C9412010C9412010C9412010C941201A4
:100090000C949F050C94BB040C9412010C94120157
:1000A0000C9412010C9412010C9412010C94120184
:1000B0000C9412010C9412010C9412010C94120174
:1000C0000C9412010C9412010C9412010C946C0506
:1000D0000C947C040C9412010C9439050C943D048E
:1000E0000C9412010C94DA010C9415010C94690122
:1000F0000C9474010C9494010C944F060C94B00170
:1001000000002200250028002B002E0031003400C2
:1001100002010000050108010B010000210024007C
:1001200027002A002D0030003300010100000401E7
:1001300007010A0105050505070508080808020268
:1001400002020A0A08080404040401010101010171
:1001500001010303030303030303040707070C0C54
:100160000C0C0C0C0C0C020202020606060606061B
:1001700006060B0B0B0B0B0B0B0B010210202008C0
:1001800008102040102040800201020108040201F2
:100190000102040810204080804020100804020161
:1001A00080040201804020100804020108040201BA
:1001B0000102040810204080010204081020408041
:1001C0004F0611241FBECFEFD1E2DEBFCDBF00E04E
:1001D0000CBF12E0A0E0B2E0E4EBF4E100E00BBF02
:1001E00002C007900D92A031B107D9F724E0A0E139
:1001F000B2E001C01D92A13CB207E1F710E0C1EEF0
:10020000D0E000E006C021970109802FFE010E9486
:10021000500AC03ED10780E00807A9F70E942107D5
:100220000C94F2080C94000008950F931F93CF9341
:10023000DF93FC01A685B7858D01005C1F4FE801A7
:100240008881998101968F739927AD014E5B5F4F2D
:10025000EA012881398128173907D1F3E80128817B
:100260003981A20FB31F6C93A685B785A05CBF4FE1
:1002700011969C938E93A689B7892C9181E090E08A
:10028000078C02C0880F991F0A94E2F7822B8C9387
:1002900081E081A30488F589E02D808180648083DA
:1002A00081E090E0DF91CF911F910F910895CF935E
:1002B000DF936DE08FE994E00E941501EC016AE0A4
:1002C0008FE994E00E9415018C0F9D1FDF91CF9163
:1002D0000895FC0181A1882329F0A489B5898C9116
:1002E00086FFFBCF11A20895FC01A485B585FD0111
:1002F000E05CFF4F20813181329680819181281707
:10030000390779F080819181A80FB91F8C912081E4
:1003100031812F5F3F4F2F7333273183208390E04C
:1003200008958FEF9FEF0895DC011C96ED91FC91ED
:100330001D97DF01A05CBF4F2D913C911197129644
:100340008D919C9111972817390739F08D919C91C7
:10035000E80FF91F808190E008958FEF9FEF0895D7
:10036000FC0124853585F901E05CFF4F8081918196
:10037000329620813181821B930B8F7399270895C8
:10038000FB01E05CFF4F20813181DB01AE5BBF4FA1
:100390004D915C912F5F3F4F2F73332742175307C7
:1003A00041F040815181DB01A40FB51F8C93318353
:1003B00020830895CF92DF92EF92FF920F931F93C5
:1003C000CF93DF936C01EB017B01E40EF51E00E09F
:1003D00010E0CE15DF0561F06991D601ED91FC9139
:1003E0000190F081E02DC6011995080F191FF1CF7A
:1003F000C801DF91CF911F910F91FF90EF90DF9097
:10040000CF9008953FB7F89480911502909116020D
:10041000A0911702B091180226B5A89B05C02F3FE6
:1004200019F00196A11DB11D3FBFBA2FA92F982F1A
:100430008827820F911DA11DB11DBC01CD0142E095
:10044000660F771F881F991F4A95D1F70895CF929D
:10045000DF92EF92FF92CF93DF936B017C010E94BA
:100460000202EB01C114D104E104F10479F00E940D
:1004700002026C1B7D0B683E7340A0F381E0C81A3A
:10048000D108E108F108C851DC4FECCFDF91CF91E2
:10049000FF90EF90DF90CF9008954F925F926F9210
:1004A0007F928F929F92AF92BF92CF92DF92EF9204
:1004B000FF920F931F93CF93DF93CDB7DEB7C45452
:1004C000D1400FB6F894DEBF0FBECDBF69837A83EB
:1004D0008B839C832D833E834F83588781E090E0FC
:1004E000A0E0B0E0CF55DF4F88839983AA83BB8318
:1004F000C15AD040CB55DF4F188219821A821B8215
:10050000C55AD0409E012F5F3F4F79018E010F5594
:100510001F4FCC24C394D12CD70114968D909D905D
:10052000AD90BC90179781149104A104B10409F413
:1005300045C04D905D906D907C90C301B201A501C6
:1005400094010E940C0ABFEFCB1ADB0AC901330FDA
:10055000AA0BBB0BCF5BDE4F88839983AA83BB8337
:10056000C154D1409C01AD01C501B4010E94E8090C
:10057000461A570A680A790AD70118964D925D9271
:100580006D927C921B97F8016481758186819781B9
:100590000E94E80980809180A280B380A501940127
:1005A000261B370B480B590B20873187428753870F
:1005B000F4E0EF0EF11C0C5F1F4FAECFF601319748
:1005C000EE0FFF1FEE0FFF1F21EA30E02C0F3D1F43
:1005D000E20FF31F6081718182819381CC5BDE4FDA
:1005E0000FB6F894DEBF0FBECDBFDF91CF911F9144
:1005F0000F91FF90EF90DF90CF90BF90AF909F90C2
:100600008F907F906F905F904F900895BF92CF92A0
:10061000DF92EF92FF920F931F93CF93DF936C01C2
:10062000C0E0D0E000E010E081E4B82ECC15DD059C
:1006300049F180917B00877F80937B00B0927C00A2
:1006400080917A00806480937A0080917A0086FDA0
:10065000FCCF809178009091790080FBEE24E0F847
:10066000F12CC7010C2E02C0880F991F0A94E2F7E3
:10067000082B192B65E070E080E090E00E942702D3
:100680002196D4CFC801DF91CF911F910F91FF9098
:10069000EF90DF90CF90BF9008958F929F92AF928E
:1006A000BF92EF92FF920F931F93CF93DF93CDB73B
:1006B000DEB7A1970FB6F894DEBF0FBECDBF162FE1
:1006C000042F19A2423008F40AE07E0121E2E20E72
:1006D000F11C802E912CA12CB12C612FA50194012D
:1006E0000E940C0A029F1019112481E0E81AF108F7
:1006F0001A3014F4105D01C0195CF7011083122F39
:10070000732FCA01232B242B252B39F7E114F10475
:1007100069F001900020E9F73197AF014E195F09A8
:10072000B7018FE994E00E94DA0102C080E090E016
:10073000A1960FB6F894DEBF0FBECDBFDF91CF916B
:100740001F910F91FF90EF90BF90AF909F908F906F
:100750000895CF92DF92EF92FF92CF93DF936B01D8
:100760007C0197FF13C06DE28FE994E00E941501B0
:10077000EC0166277727CB016C197D098E099F094B
:100780004AE00E944D03C80FD91F04C04AE00E94EE
:100790004D03EC010E9457018C0F9D1FDF91CF91FB
:1007A000FF90EF90DF90CF900895CF92DF92EF927D
:1007B000FF920F931F93CF93DF93C82F082F192F0A
:1007C000C8010E94060321E030E0790102C0EE0C6E
:1007D000FF1CCA95E2F7EC01CE0DDF1D0F5F1F4F26
:1007E000C90102C0880F991F0A95E2F78C016C01BC
:1007F00091E0C91AD108BE0180E090E00E9424096E
:100800000E9490090E94F508FB0141E022E030E0DF
:10081000CF01889FB001899F700D700D1124C617FC
:10082000D70720F42817390730F010C00097D1F708
:1008300081E090E0EECF411115C02196C017D1079D
:10084000D0F2CC21DD21CE0DDF1DD5CF4423A9F37D
:10085000CE01DF91CF911F910F91FF90EF90DF902C
:10086000CF900895CE01B9010E94F80941E0892B8B
:1008700009F440E02F5F3F4FCBCF1F920F920FB68E
:100880000F9211240BB60F922F933F938F939F9348
:10089000EF93FF932091590230915A0280915B02AD
:1008A00090915C022817390731F4809131018F7DD6
:1008B0008093310114C0E0915B02F0915C02E75E2D
:1008C000FD4F208180915B0290915C0201968F73B5
:1008D000992790935C0280935B0220933601FF91ED
:1008E000EF919F918F913F912F910F900BBE0F90A1
:1008F0000FBE0F901F9018951F920F920FB60F9278
:1009000011240BB60F922F933F938F939F93EF93E6
:10091000FF9320910303309104038091050390918C
:1009200006032817390731F48091D1008F7D809319
:10093000D10014C0E0910503F0910603ED53FD4F83
:100940002081809105039091060301968F7399276A
:1009500090930603809305032093D600FF91EF91B7
:100960009F918F913F912F910F900BBE0F900FBED3
:100970000F901F9018951F920F920FB60F9211248F
:100980000BB60F922F933F938F939F93EF93FF9309
:100990002091AD033091AE038091AF039091B003ED
:1009A0002817390731F48091C9008F7D8093C900E1
:1009B00014C0E091AF03F091B003E359FC4F2081E4
:1009C0008091AF039091B00301968F739927909314
:1009D000B0038093AF032093CE00FF91EF919F91DE
:1009E0008F913F912F910F900BBE0F900FBE0F90E4
:1009F0001F9018951F920F920FB60F9211240BB6ED
:100A00000F922F933F938F939F93EF93FF93209198
:100A10005704309158048091590490915A04281732
:100A2000390731F48091C1008F7D8093C10014C0DB
:100A3000E0915904F0915A04E95EFB4F20818091C6
:100A4000590490915A0401968F73992790935A04F0
:100A5000809359042093C600FF91EF919F918F914D
:100A60003F912F910F900BBE0F900FBE0F901F90D4
:100A700018951F920F920FB60F9211240BB60F927A
:100A80002F933F934F935F936F937F938F939F9396
:100A9000AF93BF93EF93FF938091300182FD07C026
:100AA000809136016DE572E00E94C00102C0809124
:100AB0003601FF91EF91BF91AF919F918F917F91FF
:100AC0006F915F914F913F912F910F900BBE0F90BF
:100AD0000FBE0F901F9018951F920F920FB60F9296
:100AE00011240BB60F922F933F934F935F936F9305
:100AF0007F938F939F93AF93BF93EF93FF938091D7
:100B0000D00082FD07C08091D60067E073E00E94AC
:100B1000C00102C08091D600FF91EF91BF91AF91CB
:100B20009F918F917F916F915F914F913F912F9105
:100B30000F900BBE0F900FBE0F901F9018951F9235
:100B40000F920FB60F9211240BB60F922F933F9373
:100B50004F935F936F937F938F939F93AF93BF93C5
:100B6000EF93FF938091C80082FD07C08091CE0073
:100B700061EB73E00E94C00102C08091CE00FF9142
:100B8000EF91BF91AF919F918F917F916F915F9105
:100B90004F913F912F910F900BBE0F900FBE0F9072
:100BA0001F9018951F920F920FB60F9211240BB63B
:100BB0000F922F933F934F935F936F937F938F93F6
:100BC0009F93AF93BF93EF93FF938091C00082FDFB
:100BD00007C08091C6006BE574E00E94C00102C0AE
:100BE0008091C600FF91EF91BF91AF919F918F913E
:100BF0007F916F915F914F913F912F910F900BBE1D
:100C00000F900FBE0F901F9018951F920F920FB666
:100C10000F9211242F933F938F939F93AF93BF9382
:100C20008091110290911202A0911302B0911402CE
:100C30003091100223E0230F2D3720F40196A11DDF
:100C4000B11D05C026E8230F0296A11DB11D2093FA
:100C500010028093110290931202A0931302B0939A
:100C600014028091150290911602A0911702B09182
:100C700018020196A11DB11D8093150290931602D2
:100C8000A0931702B0931802BF91AF919F918F91DB
:100C90003F912F910F900FBE0F901F901895CF92FC
:100CA000DF92EF92FF92EFE9F4E01382128288EE76
:100CB000C82E83E0D82EE12CF12CC482D582E682A6
:100CC000F78264E072E0718360838BE594E095873E
:100CD000848787E194E09787868785EC90E0918B05
:100CE000808B84EC90E0938B828B80EC90E0958BF2
:100CF000848B81EC90E0978B868B82EC90E0918FD7
:100D0000808F86EC90E0938F828F44E0448F33E0B5
:100D1000358F27E0268F95E0978F81E080A3E5EF60
:100D2000F3E013821282C482D582E682F782718355
:100D30006083A1EBB3E0B587A487ADE6B3E0B787E6
:100D4000A687ADECB0E0B18BA08BACECB0E0B38B80
:100D5000A28BA8ECB0E0B58BA48BA9ECB0E0B78B6C
:100D6000A68BAAECB0E0B18FA08FAEECB0E0B38F51
:100D7000A28F448F358F268F978F80A3EBE4F3E00B
:100D800013821282C482D582E682F78271836083E5
:100D9000A7E0B3E0B587A487A3ECB2E0B787A68746
:100DA000A5EDB0E0B18BA08BA4EDB0E0B38BA28B2E
:100DB000A0EDB0E0B58BA48BA1EDB0E0B78BA68B16
:100DC000A2EDB0E0B18FA08FA6EDB0E0B38FA28FFF
:100DD000448F358F268F978F80A3E1EAF2E013824C
:100DE0001282C482D582E682F782718360836DE5C8
:100DF00072E07587648769E172E07787668765E3EB
:100E000071E0718B608B64E371E0738B628B60E3E4
:100E100071E0758B648B61E371E0778B668B62E3C5
:100E200071E0718F608F66E371E0738F628F448F22
:100E3000358F268F978F80A3FF90EF90DF90CF9014
:100E40000895CF93DF9300D01F92CDB7DEB778948B
:100E500084B5826084BD84B5816084BD85B58260BF
:100E600085BD85B5816085BD80916E008160809370
:100E70006E001092810080918100826080938100D9
:100E800080918100816080938100809180008160E9
:100E9000809380008091B10084608093B100809144
:100EA000B00081608093B000809191008260809357
:100EB00091008091910081608093910080919000D9
:100EC0008160809390008091A10082608093A10056
:100ED0008091A10081608093A1008091A000816039
:100EE0008093A000809121018260809321018091F4
:100EF0002101816080932101809120018160809394
:100F0000200180917A00846080937A0080917A0039
:100F1000826080937A0080917A00816080937A0069
:100F200080917A00806880937A001092C100E091ED
:100F3000B304F091B40481E090E09C010090BF0400
:100F400002C0220F331F0A94E2F72083E091AF041E
:100F5000F091B0041082E091B104F091B2042FEC52
:100F600020831092C004E091B504F091B604408152
:100F70009C010090BB0402C0220F331F0A94E2F7C9
:100F8000242B2083E091B504F091B60440819C01AC
:100F90000090BC0402C0220F331F0A94E2F7242BF6
:100FA0002083E091B504F091B60440819C0100904B
:100FB000BD0402C0220F331F0A94E2F7242B2083C2
:100FC000E091B504F091B60420810090BE0402C007
:100FD000880F991F0A94E2F7809582238083E1EBC2
:100FE000F1E02491EBE6F1E084918823C9F090E0F0
:100FF000880F991FFC01E65EFE4F65917491FC011C
:10100000E050FF4FA591B4919FB7F894FB01808108
:101010002095822380838C91E22FE823EC939FBF5D
:101020008EE090E00E94D5036C018FE090E00E947A
:10103000D5039A838983A0E0B0E09C01AD012150E3
:10104000310941095109C601A0E0B0E0BC01CD0160
:1010500061507109810991090E94E8093B017C01F5
:101060008FE090E00E9406031C01412C512C4301AB
:101070005701C201B10181149104A104B10479F0B6
:10108000A50194010E940C0A562F472F382F292FB3
:10109000C501B401852E942EA32EB22EECCF613063
:1010A00071058105910559F1FFEF2F1A3F0A4F0A8B
:1010B0005F0A211420E832062FEF42065206B8F2EA
:1010C00021E030E040E050E0211480E838068FEF66
:1010D0004806580618F420E030E0A901A0E0B0E886
:1010E0000E944B0AA2019101261B370B480B590B9A
:1010F00019012A01E0E43E0E411C511CB8CF2981A0
:101100003A81D6010E942E0A4B015C019301A7018E
:10111000C201B1010E944D026B017C0197FF17C013
:1011200066277727CB016C197D098E099F09A501D8
:1011300094010E940C0A2F5F3F4F4F4F5F4FC50134
:10114000B4010E94E8096C0D7D1D8E1D9F1DA50137
:1011500094010E940C0A69837A838B839C834AE002
:10116000C201B1010E944D030E945701C701B6019F
:101170000E94A90369817A818B819C810E94A903C5
:10118000F7FC03C0C701B60117C066277727CB015C
:101190006C197D098E099F09A50194010E940C0A12
:1011A0002F5F3F4F4F4F5F4FC501B4010E94E809C9
:1011B0006C0D7D1D8E1D9F1DA50194010E940C0AC2
:1011C0000E94A9034AE0C501B4010E944D030E9498
:1011D00057010E94570168EE73E080E090E00E94A2
:1011E00027021ECFF8940C94580A0E94690988F0CF
:1011F0009F5798F0B92F9927B751B0F0E1F0660FDB
:10120000771F881F991F1AF0BA95C9F714C0B1301B
:1012100091F00E948309B1E008950C948309672F2F
:10122000782F8827B85F39F0B93FCCF3869577954A
:101230006795B395D9F73EF4909580957095619533
:101240007F4F8F4F9F4F0895E89409C097FB3EF45E
:1012500090958095709561957F4F8F4F9F4F992303
:10126000A9F0F92F96E9BB279395F6958795779581
:101270006795B795F111F8CFFAF4BB0F11F460FF41
:101280001BC06F5F7F4F8F4F9F4F16C0882311F099
:1012900096E911C0772321F09EE8872F762F05C0AD
:1012A000662371F096E8862F70E060E02AF09A9548
:1012B000660F771F881FDAF7880F9695879597F93D
:1012C000089557FD9058440F551F59F05F3F71F036
:1012D0004795880F97FB991F61F09F3F79F087959D
:1012E0000895121613061406551FF2CF4695F1DF26
:1012F00008C0161617061806991FF1CF86957105B6
:10130000610508940895E894BB2766277727CB01E9
:1013100097F9089519F416F40C94DE090C94D00989
:101320000E946909B8F39923C9F3B6F39F57550B87
:1013300087FF0E94E1090024A0E640EA900180585E
:101340005695979528F4805C660F771F881F20F0CC
:1013500026173707480730F4621B730B840B2029CC
:1013600031294A2BA69517940794202531254A2721
:1013700058F7660F771F881F20F026173707480792
:1013800030F4620B730B840B200D311D411DA095B1
:1013900081F7B901842F9158880F96958795089504
:1013A0009F3F31F0915020F4879577956795B795D9
:1013B000880F911D9695879597F908959FEF80EC7A
:1013C000089591505040660F771F881FD2F70895F7
:1013D000DB018F939F930E943D0ABF91AF91A29F23
:1013E000800D911DA39F900DB29F900D1124089523
:1013F000AA1BBB1B51E107C0AA1FBB1FA617B7073B
:1014000010F0A61BB70B881F991F5A95A9F7809556
:101410009095BC01CD010895A1E21A2EAA1BBB1B19
:10142000FD010DC0AA1FBB1FEE1FFF1FA217B307B0
:10143000E407F50720F0A21BB30BE40BF50B661FC6
:10144000771F881F991F1A9469F76095709580958A
:1014500090959B01AC01BD01CF010895A29FB00101
:10146000B39FC001A39F700D811D1124911DB29FD8
:10147000700D811D1124911D08950E942E0AA59FB3
:10148000900DB49F900DA49F800D911D112408957F
:10149000B7FF0C943D0A0E943D0A821B930B0895EE
:1014A000EE0FFF1F881F8BBF0790F691E02D199458
:0414B000F894FFCFDE
:1014B400000000001501DA01B00174019401690112
:00000001FF
